{
  "_format": "hh-sol-artifact-1",
  "contractName": "Feedback",
  "sourceName": "contracts/Feedback.sol",
  "abi": [
    {
      "inputs": [
        {
          "internalType": "address",
          "name": "_semaphoreAddress",
          "type": "address"
        },
        {
          "internalType": "uint256",
          "name": "_groupId",
          "type": "uint256"
        },
        {
          "internalType": "address",
          "name": "_nftAddress",
          "type": "address"
        }
      ],
      "stateMutability": "nonpayable",
      "type": "constructor"
    },
    {
      "inputs": [],
      "name": "Feedback__UserAlreadyExists",
      "type": "error"
    },
    {
      "anonymous": false,
      "inputs": [
        {
          "indexed": false,
          "internalType": "uint256",
          "name": "feedback",
          "type": "uint256"
        }
      ],
      "name": "NewFeedback",
      "type": "event"
    },
    {
      "anonymous": false,
      "inputs": [
        {
          "indexed": false,
          "internalType": "bytes32",
          "name": "username",
          "type": "bytes32"
        },
        {
          "indexed": false,
          "internalType": "uint256",
          "name": "identifyCommitment",
          "type": "uint256"
        }
      ],
      "name": "NewUser",
      "type": "event"
    },
    {
      "anonymous": false,
      "inputs": [
        {
          "indexed": true,
          "internalType": "address",
          "name": "previousOwner",
          "type": "address"
        },
        {
          "indexed": true,
          "internalType": "address",
          "name": "newOwner",
          "type": "address"
        }
      ],
      "name": "OwnershipTransferred",
      "type": "event"
    },
    {
      "inputs": [
        {
          "internalType": "bytes32",
          "name": "_username",
          "type": "bytes32"
        }
      ],
      "name": "getUserInfo",
      "outputs": [
        {
          "internalType": "uint256",
          "name": "",
          "type": "uint256"
        }
      ],
      "stateMutability": "view",
      "type": "function"
    },
    {
      "inputs": [],
      "name": "groupId",
      "outputs": [
        {
          "internalType": "uint256",
          "name": "",
          "type": "uint256"
        }
      ],
      "stateMutability": "view",
      "type": "function"
    },
    {
      "inputs": [
        {
          "internalType": "uint256",
          "name": "_identityCommitment",
          "type": "uint256"
        },
        {
          "internalType": "bytes32",
          "name": "_username",
          "type": "bytes32"
        }
      ],
      "name": "joinGroup",
      "outputs": [],
      "stateMutability": "nonpayable",
      "type": "function"
    },
    {
      "inputs": [],
      "name": "nftAddress",
      "outputs": [
        {
          "internalType": "address",
          "name": "",
          "type": "address"
        }
      ],
      "stateMutability": "view",
      "type": "function"
    },
    {
      "inputs": [],
      "name": "owner",
      "outputs": [
        {
          "internalType": "address",
          "name": "",
          "type": "address"
        }
      ],
      "stateMutability": "view",
      "type": "function"
    },
    {
      "inputs": [],
      "name": "renounceOwnership",
      "outputs": [],
      "stateMutability": "nonpayable",
      "type": "function"
    },
    {
      "inputs": [],
      "name": "semaphore",
      "outputs": [
        {
          "internalType": "contract ISemaphore",
          "name": "",
          "type": "address"
        }
      ],
      "stateMutability": "view",
      "type": "function"
    },
    {
      "inputs": [
        {
          "internalType": "uint256",
          "name": "_feedback",
          "type": "uint256"
        },
        {
          "internalType": "uint256",
          "name": "_merkleTreeRoot",
          "type": "uint256"
        },
        {
          "internalType": "uint256",
          "name": "_nullifierHash",
          "type": "uint256"
        },
        {
          "internalType": "uint256[8]",
          "name": "_proof",
          "type": "uint256[8]"
        }
      ],
      "name": "sendFeedback",
      "outputs": [],
      "stateMutability": "nonpayable",
      "type": "function"
    },
    {
      "inputs": [
        {
          "internalType": "address",
          "name": "_newNftAddress",
          "type": "address"
        }
      ],
      "name": "setNftAddress",
      "outputs": [],
      "stateMutability": "nonpayable",
      "type": "function"
    },
    {
      "inputs": [
        {
          "internalType": "address",
          "name": "newOwner",
          "type": "address"
        }
      ],
      "name": "transferOwnership",
      "outputs": [],
      "stateMutability": "nonpayable",
      "type": "function"
    }
  ],
  "bytecode": "0x60806040523480156200001157600080fd5b50604051620013403803806200134083398181016040528101906200003791906200027b565b620000576200004b6200018160201b60201c565b6200018960201b60201c565b82600160006101000a81548173ffffffffffffffffffffffffffffffffffffffff021916908373ffffffffffffffffffffffffffffffffffffffff1602179055508160038190555080600260006101000a81548173ffffffffffffffffffffffffffffffffffffffff021916908373ffffffffffffffffffffffffffffffffffffffff160217905550600160009054906101000a900473ffffffffffffffffffffffffffffffffffffffff1673ffffffffffffffffffffffffffffffffffffffff16639c1121416003546014306040518463ffffffff1660e01b8152600401620001449392919062000304565b600060405180830381600087803b1580156200015f57600080fd5b505af115801562000174573d6000803e3d6000fd5b50505050505050620003c7565b600033905090565b60008060009054906101000a900473ffffffffffffffffffffffffffffffffffffffff169050816000806101000a81548173ffffffffffffffffffffffffffffffffffffffff021916908373ffffffffffffffffffffffffffffffffffffffff1602179055508173ffffffffffffffffffffffffffffffffffffffff168173ffffffffffffffffffffffffffffffffffffffff167f8be0079c531659141344cd1fd0a4f28419497f9722a3daafe3b4186f6b6457e060405160405180910390a35050565b6000815190506200025e8162000393565b92915050565b6000815190506200027581620003ad565b92915050565b6000806000606084860312156200029157600080fd5b6000620002a1868287016200024d565b9350506020620002b48682870162000264565b9250506040620002c7868287016200024d565b9150509250925092565b620002dc8162000341565b82525050565b620002ed816200037f565b82525050565b620002fe8162000375565b82525050565b60006060820190506200031b6000830186620002f3565b6200032a6020830185620002e2565b620003396040830184620002d1565b949350505050565b60006200034e8262000355565b9050919050565b600073ffffffffffffffffffffffffffffffffffffffff82169050919050565b6000819050919050565b60006200038c8262000375565b9050919050565b6200039e8162000341565b8114620003aa57600080fd5b50565b620003b88162000375565b8114620003c457600080fd5b50565b610f6980620003d76000396000f3fe608060405234801561001057600080fd5b506004361061009e5760003560e01c8063a0f44c9211610066578063a0f44c9214610123578063a3867d9114610141578063adff8b0f1461015d578063d18ed1e91461018d578063f2fde38b146101a95761009e565b80630b102d1a146100a35780635bf8633a146100bf578063715018a6146100dd5780637b5d2534146100e75780638da5cb5b14610105575b600080fd5b6100bd60048036038101906100b891906109b5565b6101c5565b005b6100c7610281565b6040516100d49190610bcc565b60405180910390f35b6100e56102a7565b005b6100ef6102bb565b6040516100fc9190610c10565b60405180910390f35b61010d6102e1565b60405161011a9190610bcc565b60405180910390f35b61012b61030a565b6040516101389190610ccb565b60405180910390f35b61015b60048036038101906101569190610a30565b610310565b005b610177600480360381019061017291906109de565b6105b0565b6040516101849190610ccb565b60405180910390f35b6101a760048036038101906101a29190610a6c565b61069d565b005b6101c360048036038101906101be91906109b5565b610775565b005b6101cd6107f9565b600073ffffffffffffffffffffffffffffffffffffffff168173ffffffffffffffffffffffffffffffffffffffff16141561023d576040517f08c379a000000000000000000000000000000000000000000000000000000000815260040161023490610c6b565b60405180910390fd5b80600260006101000a81548173ffffffffffffffffffffffffffffffffffffffff021916908373ffffffffffffffffffffffffffffffffffffffff16021790555050565b600260009054906101000a900473ffffffffffffffffffffffffffffffffffffffff1681565b6102af6107f9565b6102b96000610877565b565b600160009054906101000a900473ffffffffffffffffffffffffffffffffffffffff1681565b60008060009054906101000a900473ffffffffffffffffffffffffffffffffffffffff16905090565b60035481565b6000600260009054906101000a900473ffffffffffffffffffffffffffffffffffffffff16905060008173ffffffffffffffffffffffffffffffffffffffff166370a08231336040518263ffffffff1660e01b81526004016103729190610bcc565b60206040518083038186803b15801561038a57600080fd5b505afa15801561039e573d6000803e3d6000fd5b505050506040513d601f19601f820116820180604052508101906103c29190610a07565b11610402576040517f08c379a00000000000000000000000000000000000000000000000000000000081526004016103f990610cab565b60405180910390fd5b6000600460003373ffffffffffffffffffffffffffffffffffffffff1673ffffffffffffffffffffffffffffffffffffffff1681526020019081526020016000206000848152602001908152602001600020541461048c576040517ff9ad425b00000000000000000000000000000000000000000000000000000000815260040160405180910390fd5b600160009054906101000a900473ffffffffffffffffffffffffffffffffffffffff1673ffffffffffffffffffffffffffffffffffffffff16631783efc3600354856040518363ffffffff1660e01b81526004016104eb929190610ce6565b600060405180830381600087803b15801561050557600080fd5b505af1158015610519573d6000803e3d6000fd5b5050505082600460003373ffffffffffffffffffffffffffffffffffffffff1673ffffffffffffffffffffffffffffffffffffffff1681526020019081526020016000206000848152602001908152602001600020819055507fae47f164227114dd5d6cc00748ec0627bd5e6f06ed17b1b574c03d1981f479aa82846040516105a3929190610be7565b60405180910390a1505050565b600080600460003373ffffffffffffffffffffffffffffffffffffffff1673ffffffffffffffffffffffffffffffffffffffff1681526020019081526020016000206000848152602001908152602001600020541415610645576040517f08c379a000000000000000000000000000000000000000000000000000000000815260040161063c90610c8b565b60405180910390fd5b600460003373ffffffffffffffffffffffffffffffffffffffff1673ffffffffffffffffffffffffffffffffffffffff1681526020019081526020016000206000838152602001908152602001600020549050919050565b600160009054906101000a900473ffffffffffffffffffffffffffffffffffffffff1673ffffffffffffffffffffffffffffffffffffffff16633bc778e3600354858786600354876040518763ffffffff1660e01b815260040161070696959493929190610d0f565b600060405180830381600087803b15801561072057600080fd5b505af1158015610734573d6000803e3d6000fd5b505050507f0b507af84f163b42f6b6a46de3b2fe7b7997eb55cc4ad92a38aa035cbf49c92c846040516107679190610ccb565b60405180910390a150505050565b61077d6107f9565b600073ffffffffffffffffffffffffffffffffffffffff168173ffffffffffffffffffffffffffffffffffffffff1614156107ed576040517f08c379a00000000000000000000000000000000000000000000000000000000081526004016107e490610c2b565b60405180910390fd5b6107f681610877565b50565b61080161093b565b73ffffffffffffffffffffffffffffffffffffffff1661081f6102e1565b73ffffffffffffffffffffffffffffffffffffffff1614610875576040517f08c379a000000000000000000000000000000000000000000000000000000000815260040161086c90610c4b565b60405180910390fd5b565b60008060009054906101000a900473ffffffffffffffffffffffffffffffffffffffff169050816000806101000a81548173ffffffffffffffffffffffffffffffffffffffff021916908373ffffffffffffffffffffffffffffffffffffffff1602179055508173ffffffffffffffffffffffffffffffffffffffff168173ffffffffffffffffffffffffffffffffffffffff167f8be0079c531659141344cd1fd0a4f28419497f9722a3daafe3b4186f6b6457e060405160405180910390a35050565b600033905090565b60008135905061095281610eee565b92915050565b60008190508260206008028201111561097057600080fd5b92915050565b60008135905061098581610f05565b92915050565b60008135905061099a81610f1c565b92915050565b6000815190506109af81610f1c565b92915050565b6000602082840312156109c757600080fd5b60006109d584828501610943565b91505092915050565b6000602082840312156109f057600080fd5b60006109fe84828501610976565b91505092915050565b600060208284031215610a1957600080fd5b6000610a27848285016109a0565b91505092915050565b60008060408385031215610a4357600080fd5b6000610a518582860161098b565b9250506020610a6285828601610976565b9150509250929050565b6000806000806101608587031215610a8357600080fd5b6000610a918782880161098b565b9450506020610aa28782880161098b565b9350506040610ab38782880161098b565b9250506060610ac487828801610958565b91505092959194509250565b610ad981610d82565b82525050565b610aec6101008383610dec565b5050565b610af981610d94565b82525050565b610b0881610dc8565b82525050565b6000610b1b602683610d71565b9150610b2682610dfb565b604082019050919050565b6000610b3e602083610d71565b9150610b4982610e4a565b602082019050919050565b6000610b61601f83610d71565b9150610b6c82610e73565b602082019050919050565b6000610b84601083610d71565b9150610b8f82610e9c565b602082019050919050565b6000610ba7601183610d71565b9150610bb282610ec5565b602082019050919050565b610bc681610dbe565b82525050565b6000602082019050610be16000830184610ad0565b92915050565b6000604082019050610bfc6000830185610af0565b610c096020830184610bbd565b9392505050565b6000602082019050610c256000830184610aff565b92915050565b60006020820190508181036000830152610c4481610b0e565b9050919050565b60006020820190508181036000830152610c6481610b31565b9050919050565b60006020820190508181036000830152610c8481610b54565b9050919050565b60006020820190508181036000830152610ca481610b77565b9050919050565b60006020820190508181036000830152610cc481610b9a565b9050919050565b6000602082019050610ce06000830184610bbd565b92915050565b6000604082019050610cfb6000830185610bbd565b610d086020830184610bbd565b9392505050565b60006101a082019050610d256000830189610bbd565b610d326020830188610bbd565b610d3f6040830187610bbd565b610d4c6060830186610bbd565b610d596080830185610bbd565b610d6660a0830184610adf565b979650505050505050565b600082825260208201905092915050565b6000610d8d82610d9e565b9050919050565b6000819050919050565b600073ffffffffffffffffffffffffffffffffffffffff82169050919050565b6000819050919050565b6000610dd382610dda565b9050919050565b6000610de582610d9e565b9050919050565b82818337600083830152505050565b7f4f776e61626c653a206e6577206f776e657220697320746865207a65726f206160008201527f6464726573730000000000000000000000000000000000000000000000000000602082015250565b7f4f776e61626c653a2063616c6c6572206973206e6f7420746865206f776e6572600082015250565b7f6e6577206164647265737320697320746865207a65726f206164647265737300600082015250565b7f7468657265206973206e6f207573657200000000000000000000000000000000600082015250565b7f796f7520646f6e742068617665204e4654000000000000000000000000000000600082015250565b610ef781610d82565b8114610f0257600080fd5b50565b610f0e81610d94565b8114610f1957600080fd5b50565b610f2581610dbe565b8114610f3057600080fd5b5056fea26469706673582212207c56d653fe21bf02d234f3b219cc8f67a4fcb6c860431008842b4f062090bfbf64736f6c63430008040033",
  "linkReferences": {},
  "deployedLinkReferences": {}
}