{
  "_format": "hh-sol-artifact-1",
  "contractName": "Feedback",
  "sourceName": "contracts/Feedback.sol",
  "abi": [
    {
      "inputs": [
        {
          "internalType": "address",
          "name": "semaphoreAddress",
          "type": "address"
        },
        {
          "internalType": "uint256",
          "name": "_groupId",
          "type": "uint256"
        }
      ],
      "stateMutability": "nonpayable",
      "type": "constructor"
    },
    {
      "inputs": [],
      "name": "groupId",
      "outputs": [
        {
          "internalType": "uint256",
          "name": "",
          "type": "uint256"
        }
      ],
      "stateMutability": "view",
      "type": "function"
    },
    {
      "inputs": [
        {
          "internalType": "uint256",
          "name": "identityCommitment",
          "type": "uint256"
        }
      ],
      "name": "joinGroup",
      "outputs": [],
      "stateMutability": "nonpayable",
      "type": "function"
    },
    {
      "inputs": [],
      "name": "nftAddress",
      "outputs": [
        {
          "internalType": "address",
          "name": "",
          "type": "address"
        }
      ],
      "stateMutability": "view",
      "type": "function"
    },
    {
      "inputs": [],
      "name": "semaphore",
      "outputs": [
        {
          "internalType": "contract ISemaphore",
          "name": "",
          "type": "address"
        }
      ],
      "stateMutability": "view",
      "type": "function"
    },
    {
      "inputs": [
        {
          "internalType": "uint256",
          "name": "feedback",
          "type": "uint256"
        },
        {
          "internalType": "uint256",
          "name": "merkleTreeRoot",
          "type": "uint256"
        },
        {
          "internalType": "uint256",
          "name": "nullifierHash",
          "type": "uint256"
        },
        {
          "internalType": "uint256[8]",
          "name": "proof",
          "type": "uint256[8]"
        }
      ],
      "name": "sendFeedback",
      "outputs": [],
      "stateMutability": "nonpayable",
      "type": "function"
    }
  ],
  "bytecode": "0x608060405273f268c79d48e168d09e2e3a406b5e85337c39d226600160006101000a81548173ffffffffffffffffffffffffffffffffffffffff021916908373ffffffffffffffffffffffffffffffffffffffff1602179055503480156200006657600080fd5b50604051620009993803806200099983398181016040528101906200008c91906200019f565b816000806101000a81548173ffffffffffffffffffffffffffffffffffffffff021916908373ffffffffffffffffffffffffffffffffffffffff1602179055508060028190555060008054906101000a900473ffffffffffffffffffffffffffffffffffffffff1673ffffffffffffffffffffffffffffffffffffffff16639c1121416002546014306040518463ffffffff1660e01b8152600401620001359392919062000213565b600060405180830381600087803b1580156200015057600080fd5b505af115801562000165573d6000803e3d6000fd5b505050505050620002d6565b6000815190506200018281620002a2565b92915050565b6000815190506200019981620002bc565b92915050565b60008060408385031215620001b357600080fd5b6000620001c38582860162000171565b9250506020620001d68582860162000188565b9150509250929050565b620001eb8162000250565b82525050565b620001fc816200028e565b82525050565b6200020d8162000284565b82525050565b60006060820190506200022a600083018662000202565b620002396020830185620001f1565b620002486040830184620001e0565b949350505050565b60006200025d8262000264565b9050919050565b600073ffffffffffffffffffffffffffffffffffffffff82169050919050565b6000819050919050565b60006200029b8262000284565b9050919050565b620002ad8162000250565b8114620002b957600080fd5b50565b620002c78162000284565b8114620002d357600080fd5b50565b6106b380620002e66000396000f3fe608060405234801561001057600080fd5b50600436106100575760003560e01c80635bf8633a1461005c5780637b5d25341461007a578063a0f44c9214610098578063d18ed1e9146100b6578063eed02e4b146100d2575b600080fd5b6100646100ee565b60405161007191906104c1565b60405180910390f35b610082610114565b60405161008f91906104dc565b60405180910390f35b6100a0610138565b6040516100ad9190610517565b60405180910390f35b6100d060048036038101906100cb91906103fc565b61013e565b005b6100ec60048036038101906100e791906103aa565b6101dd565b005b600160009054906101000a900473ffffffffffffffffffffffffffffffffffffffff1681565b60008054906101000a900473ffffffffffffffffffffffffffffffffffffffff1681565b60025481565b60008054906101000a900473ffffffffffffffffffffffffffffffffffffffff1673ffffffffffffffffffffffffffffffffffffffff16633bc778e3600254858786600254876040518763ffffffff1660e01b81526004016101a59695949392919061055b565b600060405180830381600087803b1580156101bf57600080fd5b505af11580156101d3573d6000803e3d6000fd5b5050505050505050565b6000600160009054906101000a900473ffffffffffffffffffffffffffffffffffffffff16905060008173ffffffffffffffffffffffffffffffffffffffff166370a08231336040518263ffffffff1660e01b815260040161023f91906104c1565b60206040518083038186803b15801561025757600080fd5b505afa15801561026b573d6000803e3d6000fd5b505050506040513d601f19601f8201168201806040525081019061028f91906103d3565b116102cf576040517f08c379a00000000000000000000000000000000000000000000000000000000081526004016102c6906104f7565b60405180910390fd5b60008054906101000a900473ffffffffffffffffffffffffffffffffffffffff1673ffffffffffffffffffffffffffffffffffffffff16631783efc3600254846040518363ffffffff1660e01b815260040161032c929190610532565b600060405180830381600087803b15801561034657600080fd5b505af115801561035a573d6000803e3d6000fd5b505050505050565b60008190508260206008028201111561037a57600080fd5b92915050565b60008135905061038f81610666565b92915050565b6000815190506103a481610666565b92915050565b6000602082840312156103bc57600080fd5b60006103ca84828501610380565b91505092915050565b6000602082840312156103e557600080fd5b60006103f384828501610395565b91505092915050565b600080600080610160858703121561041357600080fd5b600061042187828801610380565b945050602061043287828801610380565b935050604061044387828801610380565b925050606061045487828801610362565b91505092959194509250565b610469816105ce565b82525050565b61047c610100838361062e565b5050565b6104898161060a565b82525050565b600061049c6011836105bd565b91506104a78261063d565b602082019050919050565b6104bb81610600565b82525050565b60006020820190506104d66000830184610460565b92915050565b60006020820190506104f16000830184610480565b92915050565b600060208201905081810360008301526105108161048f565b9050919050565b600060208201905061052c60008301846104b2565b92915050565b600060408201905061054760008301856104b2565b61055460208301846104b2565b9392505050565b60006101a08201905061057160008301896104b2565b61057e60208301886104b2565b61058b60408301876104b2565b61059860608301866104b2565b6105a560808301856104b2565b6105b260a083018461046f565b979650505050505050565b600082825260208201905092915050565b60006105d9826105e0565b9050919050565b600073ffffffffffffffffffffffffffffffffffffffff82169050919050565b6000819050919050565b60006106158261061c565b9050919050565b6000610627826105e0565b9050919050565b82818337600083830152505050565b7f796f7520646f6e742068617665204e4654000000000000000000000000000000600082015250565b61066f81610600565b811461067a57600080fd5b5056fea26469706673582212200f0f528be7fe962ebe729772c6514a0af66f79ae9279f2bbae4c221dff38973164736f6c63430008040033",
  "linkReferences": {},
  "deployedLinkReferences": {}
}